:100000001DC02CC02BC02AC029C028C027C017C1C2
:1000100025C024C0CDC28FC221C020C01FC01EC0B9
:100020001DC014C434C41AC019C018C017C016C0EB
:1000300015C014C04DC312C011C010C011241FBE82
:10004000CFEFCDBFDFE3DEBF2FE3A0E0BCE301C015
:100050001D92AB3DB207E1F741D428C9D1CFFB01D6
:100060002E2F261B241708F008952191922728E0AF
:10007000DC01880F991FB7FF04C031E2832730E10C
:1000800093272A95A9F7ECCF482F8091DA3F803546
:10009000E0F4E091DA3F9091DA3FE695E695E69557
:1000A000F0E0E053F04C80819095977021E030E0D3
:1000B00001C0220F9A95EAF7411541F0822B808307
:1000C0008091DA3F8F5F8093DA3F089520958223F5
:1000D000F6CF8170611521F09091CE3F983008F0F5
:1000E00008959091CF3F990F982B9093CF3F909187
:1000F000CE3F9F5F9093CE3F6150ECCF8091CE3F3B
:10010000883058F08091CD3F811107C08091CF3F5A
:100110008093CC3F81E08093CD3F80910A0A8F7D10
:1001200080930A0A1092CA3F1092CB3F08958091A3
:10013000080485FF04C080E580930504089580E5E8
:100140008093060408959091813C9F5F9F77209152
:10015000823C2917E1F3E091813CF0E0EF5FF34C42
:1001600080839093813C809105088062809305088C
:100170000895CF93DF930F92CDB7DEB7898341E027
:10018000BE016F5F7F4F80914D3E90914E3E67DF85
:1001900080934D3E90934E3E0F90DF91CF91089506
:1001A000BF92CF92DF92EF92FF920F931F93CF9364
:1001B000DF9300D0CDB7DEB7F82ED62E172F042F41
:1001C00089834A8342E0BE016F5F7F4F8FEF9FEFCD
:1001D00046DF402F6D2D712F42DFB82EC92E85E5E9
:1001E000B2DF8AEAB0DF8F2DAEDF802FACDFED2CDF
:1001F000F12E0E0D1F2D111DE016F10679F48B2D39
:10020000A2DF8C2D0F900F90DF91CF911F910F9156
:10021000FF90EF90DF90CF90BF9095CFF701819145
:100220007F0191DFE9CFBC01FC0140E081918115A4
:1002300011F0403411F48EEFB3CF4F5FF7CF1F9220
:100240000F920FB60F9211241F932F933F934F934A
:100250005F936F937F938F939F93AF93BF93CF934E
:10026000DF93EF93FF938091290480FF2BC081E0FF
:10027000809329048091C83F9091C93F009711F560
:10028000C091200AD091210A109128041170809108
:10029000CA3F9091CB3F8230910509F496C078F423
:1002A000892B21F5111571F4C093C63FD093C73F38
:1002B00081E090E08093CA3F9093CB3F03C00397C7
:1002C00009F411C1FF91EF91DF91CF91BF91AF91EF
:1002D0009F918F917F916F915F914F913F912F915E
:1002E0001F910F900FBE0F901F901895111509F4D4
:1002F000B7C08091C63F9091C73FBE01681B790B84
:1003000065332CE07207F0F482E090E08093CA3FFE
:100310009093CB3F1092C43F1092C53F8091C63F4F
:100320009091C73F8093C23F9093C33F1092DA3FB2
:100330001092C13FE0EDFFE38AE0DF011D928A9554
:10034000E9F7C0CF83E090E08093CA3F9093CB3F22
:100350001092CF3F1092CE3FCB01A0E0B0E0BC01A5
:10036000CD016056784F8F4F9F4F6235B9E87B07BC
:100370008105910540F522E43FE040E050E06BD775
:10038000622F81E0A6DEC093BF3FD093C03F81E0E3
:100390008093BE3F8091C63F9091C73F8E5E954847
:1003A00080932A0A90932B0A80E280930B0A809113
:1003B0000A0A806280930A0A8091CE3F883008F44E
:1003C00081CF9CDE7FCF68E0DCCF111509F07ACFBA
:1003D0002091C23F3091C33FAE01421B530B9A01A3
:1003E000C093C23FD093C33F4E5B5A404B3C68E042
:1003F0005607D8F04C5A5D4046335C40C0F0C90106
:10040000805197428633BCE09B0708F1865A9E4094
:1004100086339C40F8F02C55344480E090E0273A35
:100420003E4028F485E090E002C081E090E0209119
:10043000C43F3091C53F232BC1F48530910569F449
:1004400081E090E08093C43F9093C53F3BCF83E031
:1004500090E0EDCF84E090E0EACF009709F032CF52
:100460001092CA3F1092CB3F2DCF83309105A9F156
:1004700048F48130910561F1029791F78091C13F75
:1004800003DE20CF049709F051CF8091DA3F811528
:1004900039F38091BD3F8111E3CF4091DA3F50E0C5
:1004A000495F5F4F83E0569547958A95E1F74B305A
:1004B00008F04AE050E060ED7FE383EB9FE3EDD688
:1004C0008091DA3F8093B23F81E08093BD3FC8CFF7
:1004D00080E0DADD1092C13FF5CE81E0D5DD81E02C
:1004E0008093C13FEFCE8091BF3F9091C03F9E016E
:1004F000281B390BC901A0E0B0E0BC01CD0160565A
:10050000784F8F4F9F4F623539E87307810591050A
:1005100080F422E43FE040E050E09DD6622F8091DD
:10052000BE3FD7DDC093BF3FD093C03F1093BE3FC7
:1005300043CF68E0F4CF1F920F920FB60F921124B1
:100540002F933F934F935F936F937F938F939F93DB
:10055000AF93BF93EF93FF9380E280930B0A809158
:10056000CA3F9091CB3F0397B1F080910A0A8F7DEB
:1005700080930A0AFF91EF91BF91AF919F918F9164
:100580007F916F915F914F913F912F910F900FBE8F
:100590000F901F9018958091CE3F883038F490913D
:1005A000CE3F8091BE3F68E0691B93DDA7DDE2CFBF
:1005B0001F921FB61F9211242F933F938F939F93E7
:1005C000EF93FF9380E180930B0A8091C83F909155
:1005D000C93F019709F04FC08091873F8F5F80939B
:1005E000873F8091863F9091873F880F8F5F981754
:1005F000F0F081E08093220490910A0A9F7E90930C
:100600000A0A1092C83F1092C93F1092CA3F109236
:10061000CB3F8093290480933004FF91EF919F9109
:100620008F913F912F911F901FBE1F901895809121
:10063000873F80FF18C081E080932204E091873FCC
:10064000E695F0E0EE0FFF1FE252F14C2081318180
:100650008091200A9091210A820F931F8093280A8B
:100660009093290ADACF81E08093260480932104B5
:1006700020EA37E0EDCF8091C83F9091C93F0297C3
:1006800061F68091B13F8F5F8093B13F9091B13F10
:100690008091B03F981708F0ACCF8091B13F80FFB8
:1006A00011C081E0809322048091200A9091210A58
:1006B000E091B13FF0E0EE0FFF1FE857F04C2081D2
:1006C0003181CACF81E08093260480932104ECCF4E
:1006D0001F920F920FB60F9211242F933F934F93B7
:1006E0005F936F937F938F939F93AF93BF93EF939A
:1006F000FF9380912008909121082091053E2115BB
:1007000091F4292F2474211519F01092833D0BC008
:1007100090FF62C09091833D911116C08093833CFD
:1007200081E08093833DFF91EF91BF91AF919F91C5
:100730008F917F916F915F914F913F912F910F908A
:100740000FBE0F901F9018958111E8CF9091833DB7
:1007500097FDDBCFE091833D91E09E0F9093833D29
:10076000F0E0ED57F34C10829091833D9B3068F29E
:1007700020E030E008C0E82FF0E0ED57F34C908126
:10078000290F311D8F5F9091833D9250891798F307
:10079000E091833DF0E0EF57F34C80818213B5CFB9
:1007A000E091833DF0E0EE57F34C80818111ADCFB5
:1007B0008091D23E8111A9CF4091833D50E063E802
:1007C0007CE381E59EE369D58091833D8093D13EB2
:1007D00081E08093D23E99CF9091833D911509F4A9
:1007E000A2CF9091833D97FD90CFE091833D91E022
:1007F0009E0F9093833DF0E0ED57F34C808381157D
:1008000009F091CF9091833D9B3008F48CCF20E08C
:1008100030E008C0E82FF0E0ED57F34C9081290F4D
:10082000311D8F5F9091833D9250891798F3E0912D
:10083000833DF0E0EF57F34C8081821709F073CFCE
:100840008091D23E811509F06ECFB6CF2F932FB78E
:100850002F938F939F93EF93FF9390910008809134
:10086000073E8F5F8F772091063E281741F0E09179
:10087000073EF0E0ED5FF24C90838093073EFF91DE
:10088000EF919F918F912F912FBF2F9118958F935B
:100890008FB78F939F93EF93FF939091823C8091BA
:1008A000813C9817A9F0E091823CF0E0EF5FF34CB7
:1008B0008081809302088091823C8F5F8F77809344
:1008C000823CFF91EF919F918F918FBF8F911895EF
:1008D000809105088F7D80930508F3CFCDB7DEB7F3
:1008E000CF58D109CDBFDEBF88ED84BF1092610023
:1008F0008FE08093410480934504EEEBF2E981910F
:10090000809346042FE739EA93E02150304090402D
:10091000E1F700C0000080934504A2E9E53CFA0736
:1009200071F78FE080934604BFEF22E537E0B150C6
:1009300020403040E1F700C000008093450480E58E
:10094000809301048093060480EA8093020410924D
:10095000150410921704EBDB34E03093210488E097
:10096000809322048093330446EB52E040930808BE
:100970005093090893E09093070820EC2093060811
:1009800090E89093050810924F3E1092503E42E03E
:1009900040930104409305043093020480931204B1
:1009A00046E450E1409328085093290886E080935C
:1009B0002708209326089093250881E0809322043D
:1009C00080932604809330041092010A8FEF9FEFEA
:1009D0008093260A9093270A1092200A1092210AE7
:1009E00010920A0A89E08093000A1092CA3F10927E
:1009F000CB3F1092C83F1092C93F78948AED92E99C
:100A000012DC8E010F5F1F4F4E0181E8880E911C92
:100A1000B2E04B2E512CC557DF4F0883CB58D04046
:100A2000C457DF4F1883CC58D040C357DF4F88825C
:100A3000CD58D040292C83E0B82ECC24CA94DC2C8D
:100A4000F0EAEF2EFFE0FF2EA4EC6A2EA9E07A2E4A
:100A50009091073E8091063E9813B5C08091D23E9A
:100A6000811549F1F894A090D13E4A2D50E061E5FE
:100A70007EE3C557DF4F8881CB58D040C457DF4F46
:100A80009881CC58D04009D41092D23E789481E01D
:100A900080934604E092DC3EF092DD3E4A2DC5573D
:100AA000DF4F6881CB58D040C457DF4F7881CC5896
:100AB000D04080E075DB8091BD3F811509F43EC0D8
:100AC000F8943090B23F432D50E0495F5F4F93E080
:100AD000569547959A95E1F7A42EBBE04B1710F079
:100AE0008AE0A82E4A2D50E063EB7FE3C357DF4F27
:100AF0008881CD58D040922DD0D31092BD3F7894AC
:100B000084E080934604E092D83EF092D93E398248
:100B1000DE011296F4018E2F88198A1508F436C367
:100B200041E04A0DC557DF4F6881CB58D040C457CC
:100B3000DF4F7881CC58D04081E132DB8091CD3FCE
:100B40008115D9F0F8948091CC3F1092CD3F7894E4
:100B5000898384E080934604E092D83EF092D93EA7
:100B600041E0C557DF4F6881CB58D040C457DF4FB5
:100B70007881CC58D04082E113DB8091D43E9091B3
:100B8000D53E892B09F40CC38091D43E9091D53E7B
:100B900001978093D43E9093D53E892B09F000C3F2
:100BA0008091D33E8F5F8093D33E8091D33E82303D
:100BB00009F4EFC2833009F44AC38FE080934504FF
:100BC0001092D33EEDC2E091063EF0E0ED5FF24CB4
:100BD000A0808091063E8F5F8F778093063EE091E4
:100BE0004F3EF091503EE730F10508F031CFE85A22
:100BF000F64F099495E5A9122BCFA1E0B0E0A093A0
:100C00004F3EB093503E24CFBAEAAB1209C0409297
:100C10004F3E5092503EC0924D3ED0924E3E18CF25
:100C200025E5A21609F414CF10924F3E1092503EC3
:100C30000FCFA0924C3E8A2D9CDAB0924F3E10927C
:100C4000503E06CFA0924B3E8A2D93DA31E4A31694
:100C500058F710924A3E95E0A11094E080E09093FE
:100C60004F3E8093503EF4CEE0914A3E332433947D
:100C70003E0E30924A3EF0E0E65FF14CA0828A2DB3
:100C800078DA80914B3E3812E3CE85E080934F3E78
:100C9000D6CF8A2D90E08093083E9093093E96E04F
:100CA00090934F3ECCCF8091083E9091093E9A2977
:100CB0008093083E9093093E20914D3E30914E3EE8
:100CC0008217930709F0B0CF60914B3E80914C3E64
:100CD000803209F427C260F4813109F4C2C0823144
:100CE00009F464C1811509F43FC08BE993E9B7C0E9
:100CF0008E3F09F499CF8F3FC1F719DA80E58983D8
:100D00008FE48A838EE48B8387E48C8381E08D83F8
:100D100085E08E838F838FE088878091040486FB33
:100D2000882780F98987E5ECF2E9DE011A9649E027
:100D300081918111F4C1C557DF4F6881CB58D040F4
:100D4000C457DF4F7881CC58D0408FEF29DA8FE03D
:100D50008093460481E08093D33E84EC99E08093B5
:100D6000D43E9093D53E60CF7091053E711175C011
:100D7000862F90E09C012E5F3F4F2138310508F00F
:100D80006CC04AE05EE3A5E8BDE3FA0120E030E094
:100D9000AE2EA41AA616C8F1FC01EB57F24C208324
:100DA00011826E5F6093843D81E08093053E1092D6
:100DB000833D809126088F778093260880912508AF
:100DC0008F778093250880E48093240820E4809125
:100DD000843D7817F8F08091260880688093260873
:100DE0008091240887FD34C0809125088068809315
:100DF00025081092053E82E08093460480EA9FE039
:100E00008093DA3E9093DB3E0FCFA190AD922A0DF6
:100E1000311DBECF8091240885FFFCCF81E0711584
:100E200031F09091843D915081E0971380E0E72F5D
:100E3000F0E0EB57F24C90819093220880932308C6
:100E40008091240886FFFCCF209324087F5FBFCFCA
:100E50008091210880912008C3CF87EF92E9E3D9E0
:100E6000E3CE81E193E96230D0F380910A3E482FCE
:100E700050E09A01295F3F4F73E0369527957A95A8
:100E8000E1F72F5F3F4F6217130618F486E293E9EC
:100E9000E6CF2091C83F3091C93F232B09F083C092
:100EA0009FEF980F903508F07EC020EA37E020933E
:100EB000DE3E3093DF3E2093E03E3093E13E27EA72
:100EC00034E42093E23E3093E33EE4EEFEE320E0A0
:100ED00090E0622FA92FA695A695A695B0E0A55FF4
:100EE000B14C2C9130E0792F7095777002C0359518
:100EF00027957A95E2F72170911511F0261739F0B0
:100F000062E236E2211105C060EA37E002C061EE1C
:100F100036E16083318332969F5F8913DACF440FC5
:100F2000551FFA01EC51F14C23E635E32083318360
:100F30008C5F8093863F1092873FF8941092300424
:100F400081E08093290490910A0A9F7D90930A0A78
:100F50001092CA3F1092CB3F21E030E02093C83F6F
:100F60003093C93F80932604809321048091200A06
:100F70009091210A8056984F8093280A9093290ACD
:100F800080E180930B0A80910A0A806180930A0AAB
:100F9000789488E08093460480EA9FE08093D63E70
:100FA0009093D73E41CE85E493E959CF8BE593E901
:100FB000611509F454CF80E793E9613009F04FCF10
:100FC0008091C83F9091C93F892B09F0A5C0E0915D
:100FD0000A3E47E050E070E020E080E0F0E0922F31
:100FE0009F01042E02C0359527950A94E2F72170DF
:100FF0008115A1F129132BC08F5F4150510978F75A
:1010000061E0670FF801E70FF11D8083C257DF4FE2
:1010100008831983CE58D04088E89FE3F80122E482
:101020003FE04E2F401B4617D8F0E62FF0E060FF60
:1010300022C042E0470FEE0FFF1FE857F04C82E15D
:101040009AE78083918350E082E49FE03AC0D80120
:10105000A70FB11D8C9381E07F5FCFCF81E0CDCF13
:10106000A190A29EA001A39E500D1124DC014D93DE
:101070005D93CD01D6CFEE0FFF1FEA57F04C808174
:1010800091818E5E954880839183462FDCCFC25735
:10109000DF4FA881B981CE58D0407D91C257DF4F34
:1010A000A883B983CE58D040F0E0EE0FFF1FE85779
:1010B000F04C789F9001799F300D1124208331836B
:1010C0005F5FE42FE50F561710F3460F4093B03FD4
:1010D0001092B13FF8941092300481E0809329047B
:1010E00090910A0A9F7D90930A0A1092CA3F10922B
:1010F000CB3F4092C83F5092C93F809326048093D3
:1011000021048091200A9091210A2091883F3091FA
:10111000893F820F931F30CF81E993E9A0CE4F5FC3
:101120008D9306CE611561F080910A3E90E180FFBB
:1011300026C09093050482FF25C080E480930504B7
:1011400080910404829581709091080495FF8260DB
:101150009091040496FD84609091080497FD886046
:10116000898341E0C557DF4F6881CB58D040C457D1
:10117000DF4F7881CC58D04080E212D855CD909383
:101180000604D9CF80E480930604DACF81918D9351
:10119000C2CC8FE0809345046092D43E7092D53EDD
:1011A00025E82A95F1F700008091DC3E9091DD3E24
:1011B000892B71F08091DC3E9091DD3E0197809308
:1011C000DC3E9093DD3E892B19F481E08093450449
:1011D0008091DA3E9091DB3E892B71F08091DA3E6E
:1011E0009091DB3E01978093DA3E9093DB3E892B12
:1011F00019F482E0809345048091D83E9091D93EC5
:10120000892B71F08091D83E9091D93E01978093BF
:10121000D83E9093D93E892B19F484E080934504FD
:101220008091D63E9091D73E892B09F411CC8091C4
:10123000D63E9091D73E01978093D63E9093D73E6D
:10124000892B09F0FACB88E080934504F6CB8FE038
:1012500080934604A1CFA1E21A2EAA1BBB1BFD015D
:101260000DC0AA1FBB1FEE1FFF1FA217B307E40785
:10127000F50720F0A21BB30BE40BF50B661F771FDD
:10128000881F991F1A9469F76095709580959095BD
:101290009B01AC01BD01CF010895FB01DC0102C03F
:1012A00001900D9241505040D8F70895F894FFCF27
:0E12B000A1CCAACCBECCC6CCD7CCEBCCF4CC17
:1012BE00010204080402014D6179202032203230EF
:1012CE0032362031303A31323A3431006174746939
:1012DE006E79383236206D647476322062726964AB
:1012EE006765207265616479006D6C206275737933
:1012FE00206F72206672616D6520746F6F206C6F47
:10130E006E6700646C3836206672616D6520746F8E
:10131E006F2073686F727400646C38362062697463
:10132E005F636F756E74207673206C656E206D69C9
:10133E00736D6174636800646C38362062757379FE
:10134E00206F7220746F6F206C6F6E6700646C3844
:10135E0030206672616D6520746F6F2073686F72D6
:10136E007400646C3830206D756C74692D627974FC
:10137E0065207478206E6F7420737570706F727440
:10138E00656400646C3830206275737900756E6B1D
:0A139E006E6F776E206368616E00C9
:00000001FF
